:0200000270008C
:10800000807F002021880700498807004B880700EF
:108010004D8807004F8807005188070000000000C6
:10802000000000000000000000000000538807006E
:10803000558807000000000057880700598807008E
:108040005B8807005B8807005B8807005B88070088
:108050005B8807005B8807005B8807005B88070078
:108060005B8807005B8807005B8807005B88070068
:108070005B880700F5A307005B8807005B880700A3
:108080005B880700C19507005B8807005B880700D5
:10809000819607005B8807009DB307005B88070097
:1080A0005B8807005B8807005B8807005B88070028
:1080B0005B8807005B8807000000000000000000EC
:1080C0005B8807005B8807005B8807005B88070008
:1080D0005B8807005B8807005B88070000000000E2
:1080E0000000000000000000000000000000000090
:1080F0000000000000000000000000000000000080
:10810000000000000000000000000000000000006F
:10811000000000000000000000000000000000005F
:10840000044B05481B1A062B02D9044B03B118472D
:10841000704700BF7B2C0020782C0020000000005B
:1084200005490648091A891001EBD171491002D09B
:10843000034B03B118477047782C0020782C00209C
:108440000000000010B5064C237843B9FFF7D8FFB1
:10845000044B13B10448AFF300800123237010BD17
:10846000902C0020000000003CDE070008B5084BFF
:108470001BB108490848AFF300800848036813B9E6
:10848000BDE80840CCE7064B002BF9D09847F7E74A
:1084900000000000942C00203CDE0700742C00201B
:1084A00000000000134B002B08BF114B9D46A3F5A5
:1084B000803A00218B460F461148124A121A00F0EA
:1084C0007BF80D4B002B00D098470C4B002B00D0B5
:1084D00098470020002104000D000B4800F016F81A
:1084E00000F042F82000290000F0E6FE00F014F849
:1084F00000000800807F0020000000000000000055
:10850000902C0020503900204185070000230146AF
:108510001A46184600F09EB808B5074B044613B13A
:10852000002100F0FFF8054B1868836A03B19847F3
:10853000204600F073F900BF2587070098D907008F
:1085400038B5074D074C2C1BA41005D0013C55F83D
:10855000043D9847002CF9D1BDE8384005F016BA23
:10856000742C0020702C002070B50F4E0F4D761B20
:10857000B61018BF002405D0013455F8043B9847C5
:10858000A642F9D10A4E0B4D761B05F0F9F9B6104B
:1085900018BF002406D0013455F8043B9847A64282
:1085A000F9D170BD70BD00BF6C2C00206C2C002078
:1085B000702C00206C2C002070B4840746D0541E10
:1085C000002A41D0CDB2034602E0621EE4B3144655
:1085D00003F8015B9A07F8D1032C2ED9CDB245EAF6
:1085E00005250F2C45EA054519D903F11002264649
:1085F000103E0F2E42F8105C42F80C5C42F8085C0A
:1086000042F8045C02F11002F2D8A4F1100222F048
:108610000F0204F00F041032032C13440DD91E4630
:108620002246043A032A46F8045BFAD8221F22F0B5
:1086300003020432134404F003042CB1C9B21C44F5
:1086400003F8011BA342FBD170BC704714460346DC
:10865000C2E700BF2DE9F0472E4E34680746884632
:1086600091469A46002C37D065681F2D13DD2A4BA2
:10867000002B4AD08C20AFF300800446002844D061
:1086800033680360002330604360C0F8883077BBF4
:108690003D46012313E08FB1D4F8880028B3D0F809
:1086A000001140F825900126AE4000EB85033143D0
:1086B000022FC0F80011C3F880A007D06B1C023550
:1086C0006360002044F82580BDE8F087D0F80431CD
:1086D0001E43C0F80461F1E7104B114C3460002BCD
:1086E000C2D01B68C4F88830BEE70B4B6BB14FF4A7
:1086F0008470AFF3008040B100216568C0F80011BC
:10870000C0F80411C4F88800CBE74FF0FF30BDE893
:10871000F08700BF382D002000000000000000009E
:10872000AC2C00202DE9F04F83B00F460190394B5F
:10873000D3F80090B9F1000F32D09B46D9F804501D
:10874000D9F888806C1E11D4AD002E1D4E444544CE
:108750004FB3B8F1000F02D0EB6F9F4223D0013C22
:10876000631CA5F10405A6F10406F1D12A4BBBB1A7
:10877000D9F80430002B44D1D9F80030002B42D076
:10878000CBF80030B8F1000F02D04046AFF30080C4
:108790004846AFF30080DBF80090B9F1000FCDD16F
:1087A00003B0BDE8F08FD9F804303268013BA34232
:1087B00016BF0023C9F804403360002ACFD0D9F88F
:1087C00004A0B8F1000F16D0D8F800110123A3407F
:1087D0000B4210D0D8F804110B420ED155F8041CEE
:1087E00001989047D9F804309A45A0D1DBF80030C1
:1087F0004B45B4D09BE79047F4E755F8040C9047FD
:10880000F0E7D9F80030CB469946B9F1000F95D181
:10881000C6E700BF382D002000000000FEE700BFC3
:108820000649074A074B9B1A03DD043BC858D05042
:10883000FBDC02F0DFFBFFF735FE000048DE07003F
:10884000002C0020902C0020FEE7FEE7FEE7FEE76C
:10885000FEE7FEE7FEE7FEE7FEE7FEE7024A1368F3
:10886000013B1360704700BF4C2D002030B50C4910
:108870000C4C8A6B85B068465C3103F041FB9DE887
:108880000F0084E80F00084BE360084B0849002202
:108890001A605A602046074A03F0C7FD05B030BD94
:1088A000F43700203C2D0020E1880700502D0020E7
:1088B0007CDA0700D031002008B503F027F8BFF3B9
:1088C0004F8F0549054BCA6802F4E0621343CB6041
:1088D000BFF34F8F00BFFDE700ED00E00400FA0595
:1088E0005B689A68054B9A4206D1426883680449DE
:1088F0000132013B0A604B60704700BFA0D90700FE
:10890000502D002038B5012002F02AFE08BB114B83
:10891000114C1860A36B2546D3B1FFF7A7FFB8B180
:10892000236A23B9A36913B10C4A136007E0EA6A0A
:10893000094B6AB99A695AB15A6A084B1A60074BCF
:10894000074A1868002103F023F9064B01221A7028
:10895000002038BD4C2D0020F4370020582D002079
:1089600068310020CC3100202DE9F74F0B78012B26
:108970000C46164601D0062B07D12279012A02D0D7
:10898000022A40F0E082A0490A709F4A1278012A28
:1089900003D0022A00F0AE8079E3013B052B00F200
:1089A000D482DFE813F00600200040001900D20254
:1089B0009F00A3680BB3B3F5807F00F28C80002585
:1089C000924B93481D7020222946FFF7F5FD914BED
:1089D0001D63A2689A6304E08E4BDA6B72601B6CB5
:1089E000B360012056E38B4DA268E86BAB6B1118A6
:1089F000994204D970602B6CB36003204AE3284489
:108A000061685C3004F022FFEA6BA3681344EB63F7
:108A100005F14002A168606801F0DAF8EB6B2864A8
:108A200073602B6CDCE77B4EF26BB36B9A4201D028
:108A300008202FE3754C2378002BD2D1FFF716FFC7
:108A4000012840F02483744B93F874201D46002ABB
:108A500043D093F87A30002B00F019836F4B93E8E2
:108A600006001F46002900F01483002A00F011833D
:108A700095F8DB3023B195F8DC30002B40F009830A
:108A800095F88400644B002800F00383D3F8880035
:108A9000342840F0FE8213F88CEF002043F20C0CD7
:108AA000704580F2F682BCF8008053F8049FC145FF
:108AB00000F04D820130F3E795F8A820002A00F07D
:108AC000E882554AD2F8AC101960554AC2F5FC222A
:108AD000914240F2C0820420DCE21B78002B00F0BF
:108AE000D682D6E24B4B1A6CB260DB6B73604FF4EC
:108AF000807326E2013B052B00F22782DFE813F0AA
:108B0000060049002F012A0125021A02A368002B42
:108B10003FF473AFC3F30B023AB13E4A4149526D81
:108B200009681A448A427FF468AFB3F5805FD2D8EF
:108B3000364A1278002A3FF47BAF364A3949506DE5
:108B4000096803448B423FF673AFD36C9364A36808
:108B5000536410651063344A344D1378A1680133AF
:108B600003F003031370324B00221A802B68314A42
:108B700001332B60304B1B6801F6FF71090B184461
:108B800002F04EFD00283FF42CAF2B68013B2B6018
:108B90007DE2204D2B6D7360AB6CB3601B4B1B787B
:108BA000002B3FF445AFA168B1F5807F93D82B6DC2
:108BB0006A6D0B449B1A6A6C93423FF61EAF05F137
:108BC000480260681A4FDFF86080DFF870A000F09C
:108BD000FFFFA8642A6DA36813442B657360AB6C18
:108BE000B360A2683B889918FF29616828D898F873
:108BF0000000019303EB0020504404F027FEA0681E
:108C0000019B184438806BE0642C0020CC3100209C
:108C10002C380020F4370020D0310020502D0020C7
:108C200000800700582D0020FC3200204C2D002031
:108C30005C3100205D880700683100205C2D002039
:108C400098F80090C3F580724FEA09291FFA82FB59
:108C500009EB03005A46504404F0F8FD4FF48073CA
:108C60003B80A3686268CBEB03035A44A360DFF840
:108C7000F4B1774B6260D3F800E0DBF80030286B8A
:108C80000133CBF800304022724B0AEB09017044EB
:108C900002F07EFC20B92A6B3B8813442B630BE067
:108CA000DBF80030013BCBF80030EB6CAB646B6D54
:108CB0002B657360EB6CB36098F8003000220133D1
:108CC0003A80A26803F0030388F8003042B162489A
:108CD000616800EB032004F0B9FD604BA2681A80C4
:108CE0003A88002A3FF47DAE6B6D286B696C5C4C52
:108CF000D31A03448B42FFF474AE554B594DD3F84D
:108D000000E02B6898F800C05349013303322B6010
:108D10009210504B01EB0C21704402F039FC28B941
:108D20004E4B226B1B881344236309E02B68013BE5
:108D30002B60E36CA364636D23657360E36CB360C5
:108D400098F80030013303F0030388F80030002363
:108D50003B8046E6424B1A6D72609B6C40E6404D8C
:108D60002A6D6B6D696CD31A99427FF461AEAB6C5E
:108D70006A650020EB64686402F046FD3A4B296D99
:108D80001A68914298467FF42CAE364C236813B192
:108D900002F086FBFAE7354E96F8B930032B1CD16A
:108DA000334F2B49334B3B604FF020093B46D8F8FB
:108DB00000200968C7F80490052001F001F94A462F
:108DC000002806F1BB01386814BF0A24012404F00E
:108DD0000BFD002818BF052400E00A246B6923B1AD
:108DE000012B40F05681244B00E0244B012C47D14D
:108DF00096F8A120032A15D8DFE802F002050B0E31
:108E000001229A6015E0A5229A60D6F8A4206A6330
:108E100018E0AA229A6010E0AC229A60D6F8A4204A
:108E20006A630AE022B1023A012A0AD80A2404E05D
:108E30000A24D6F88020AA6004E0D6F88020EA60F0
:108E400000E00A24AA6C5A60D8F800201BE000BF9A
:108E5000683100205D8807005C2D00205C31002017
:108E6000F43700204C2D0020582D0020D031002058
:108E7000502D0020AC310020183800200C38002084
:108E800000229A605A601A60002120228348844E92
:108E9000FFF792FBB222FF218248FFF78DFB0023F0
:108EA0002B63814D814802F0AFFC112840D1804BEB
:108EB0002A6800BF00BF00BF00BF00BF00BF00BFE7
:108EC00000BFB2422FD000BF00BF00BF00BF00BF35
:108ED00000BF00BF00BF00BF00BF00BF00BF00BF9A
:108EE00000BF00BF00BF00BF00BF00BF00BF00BF8A
:108EF00000BF00BF00BF00BF00BF00BF00BF00BF7A
:108F000000BF00BF00BF00BF00BF00BF00BF00BF69
:108F100000BF00BF00BF00BF00BF00BF00BF00BF59
:108F200000BF00BF00BF013BC3D102F0B9FAB9E7EF
:108F30002046AFE05F4B9A6CB2601B6D73604FF4DC
:108F4000805333604DE50720A4E00220A2E095F8AD
:108F5000A130032B00F29D80DFE803F0021A09091B
:108F600095F87C30002B00F09480B0680AE095F80A
:108F70007C00002800F08D80F0681BB1023B012BC3
:108F80000ED809E0D5F880308342C0F0828007E037
:108F9000023B012B04D80020D5F88030834278D9D9
:108FA00095F8E830444E002B73D1444B3B602023AE
:108FB0007B600520424B01F003F8002869D196F848
:108FC000E970DFF814813A4606F1EA01404604F000
:108FD0003DFC3C4B3A4A3C49C3F8008004205F60AA
:108FE00000F0D6FF002852D1384B96F8A120186027
:108FF000032A4ED801A151F822F000BF0D900700BE
:109000001D900700B98A07002F90070095F8B0203F
:10901000002A3ED0284AD2F8B42006E095F8A220D3
:10902000002A36D0244AD2F8A4201A6013E095F81A
:10903000A810214A69B392F8A21051B3D2F8A40043
:10904000D2F8AC1042181A6000283FF4D6AC0029C0
:109050003FF4D3AC39E51E4A184E02F120071068E0
:109060005168354603C50832BA422E46F7D1186812
:1090700000283FF4C2AC174A002102F089FD002805
:109080007FF429AD02F0C0FB0120207002E0052032
:1090900000E00A2003B0BDE8F08F00BF2C380020AC
:1090A0000024F40050380020682C0020B988070004
:1090B000A0860100F4370020D0310020AC31002020
:1090C000502D0020603100201CDB0700582D0020AF
:1090D0008B320020683100206C31002070477047CF
:1090E000BFF34F8F0549064BCA6802F4E062134391
:1090F000CB60BFF34F8F00BFFDE700BF00ED00E086
:109100000400FA05084A4FF0A0435078D3F8103510
:1091100023FA00F0137800F0010013F0100F0CBFD9
:10912000C0B280F00100704794DB070008B5FFF77C
:10913000D7FF08B5FFF7D4FF0D4B00EB80001A18DE
:1091400070B51B5C5478C3F300134FF0A04204F5D4
:10915000E0758B424FF003064FF0010342F82560A3
:1091600003FA04F30CBFC2F80C35C2F8083570BD21
:1091700094DB0700022808B504D003280BD078B987
:10918000084800E00848FFF7AAFF01210846BDE8AB
:109190000840FFF7D1BF0548BDE80840FFF79FBF73
:1091A00008BD00BF24DB070039DB070036DB070002
:1091B000F8B5FFF7A7FF054600286CD0FFF78EFF34
:1091C0003648374E374FFFF78AFF3748FFF787FF9C
:1091D0003648FFF784FF40F6B834FFF793FF0028C6
:1091E0004FD0002C52D040F2E733326800BF00BFAE
:1091F00000BF00BF00BF00BF00BF00BFBA422FD0FA
:1092000000BF00BF00BF00BF00BF00BF00BF00BF66
:1092100000BF00BF00BF00BF00BF00BF00BF00BF56
:1092200000BF00BF00BF00BF00BF00BF00BF00BF46
:1092300000BF00BF00BF00BF00BF00BF00BF00BF36
:1092400000BF00BF00BF00BF00BF00BF00BF00BF26
:1092500000BF00BF00BF00BF00BF00BF00BF00BF16
:10926000013BC3D114F0030F0CBF012100210120E9
:10927000FFF762FF630602D10D48FFF730FF013CA4
:10928000ABE71CB10B48FFF72AFF00E025460121A0
:109290000846FFF751FF2846F8BD00BF45DB070031
:1092A000682C00200024F40052DB070069DB070073
:1092B00082DB070084DB0700002110B50120FFF7E7
:1092C0003BFF0F4B5A781B78DB0647BF03210B4649
:1092D000022301211B0443EA810302F5E0724FF0EF
:1092E000A04141F8223002F0A1F8044608B1FFF78E
:1092F000F7FE43F20803186802F0BCF8204610BDE0
:1093000094DB070010B512F0030411D1094B1A6069
:109310004B1CDB009BB21A44074B1A60074B1C70B6
:10932000074B1C70074B1880074B1980204610BD57
:10933000072010BD00330020043300200B33002031
:109340000A330020083300200C3300202DE9F743B6
:10935000284D2B888B4206460C46174644D302A85C
:109360004FF0000800F8018D00F0F6FB224B234A75
:1093700018781178CBB2224909888B4238BF013363
:10938000C0B238BF5FFA83F840450AD092F8008037
:109390001378DBB2994286BF0133DBB2002313702E
:1093A00001E04FF6FF789DF8070000F0FBFB4FF659
:1093B000FF7398451AD0134B1B6803EBC80943F899
:1093C00038706EB164B1104B28881B682246314654
:1093D00008FB003004F03AFAA9F80440002006E047
:1093E0000020A9F8040002E0092000E0042003B0F6
:1093F000BDE8F083083300200A3300200B3300203F
:109400000C3300200033002004330020F8B5124C48
:10941000124D264622782B789A421CD02378104889
:10942000104A078812681048DBB219B202EBC10E6D
:10943000006852F83120BEF8041003FB0700904783
:109440000A4A23781288DBB29A4286BF0133DBB224
:1094500000233370DEE7F8BD0A3300200B33002011
:109460000833002000330020043300200C33002098
:1094700010B50A494A788C78531CDBB29C4208BF6D
:1094800000230C789C421FBF0370486802EB420225
:1094900000EBC20008BF002010BD00BF1C3300203D
:1094A00073B5054602A8002400F8014D0E4600F0F1
:1094B00053FB0DF10600FFF7DBFF30B106700A4BDE
:1094C0009DF8062045605A7000E004249DF80700CE
:1094D00000F068FB24B9054B4FF48012C3F800215B
:1094E000204602B070BD00BF1C33002000E100E048
:1094F000204B21491A682F2300BF00BF00BF00BFC7
:1095000000BF00BF00BF00BF8A422FD000BF00BF16
:1095100000BF00BF00BF00BF00BF00BF00BF00BF53
:1095200000BF00BF00BF00BF00BF00BF00BF00BF43
:1095300000BF00BF00BF00BF00BF00BF00BF00BF33
:1095400000BF00BF00BF00BF00BF00BF00BF00BF23
:1095500000BF00BF00BF00BF00BF00BF00BF00BF13
:1095600000BF00BF00BF00BF00BF00BF013BC3D1B1
:10957000704700BF682C00200024F4000C4B0D48FD
:109580004FF4003210B5C3F8802001244FF480332B
:10959000C0F84833C0F808334460FFF7A9FF064B12
:1095A000846000201860FFF7A3FF044B187010BD03
:1095B00000E100E0001001401033002030330020B3
:1095C0002DE9F0412649274B0022C1F84021C1F87E
:1095D0004421C1F84821C1F84C21C1F80021C1F84B
:1095E00004211B68002B38D01F48D1F804150468EB
:1095F000DFF888800C1B24F07F44154617461A6854
:10960000A24215D8A41A15441A7CDE696AB1D8F8AA
:1096100000201F7432B199695869904728B1FFF74B
:1096200088FD02E05A69986990470EB13346E6E733
:109630000E4B0F4A197813788B4205D10133DBB2F8
:10964000022B08BF0023137012780A4B43F82250F4
:10965000094B4FF48012C3F80021BDE8F08100BF30
:109660000010014014330020103300202533002067
:10967000243300202833002000E100E018330020CC
:109680002DE9F04F894A8A48137800788949984231
:1096900085B0D1F800E010D00133DBB2022B08BF57
:1096A000002313701278844B53F822000EEB000352
:1096B00023F07F430B60012401E0002004467F4B30
:1096C0007F4A93F80090D2F800C05A7801925A6805
:1096D0009B7802930B6803937A4B0092002193F8D6
:1096E00000A04A4663468B468846019DAA4225D083
:1096F00002EB4205029F009E0132D2B2BA4208BF7D
:109700000022009F06EBC50617F83550022D02D047
:10971000032DEAD10AE076681D461F46002DE4D0ED
:10972000AE4200F02E812F46ED69F7E7002BDCD02A
:109730004FF000011974DB690121F7E7B8F1000F60
:1097400002D0604A82F800A0BBF1000F02D0594A53
:10975000039D15605A4A01B11360136834B9B3EB25
:109760000C0C18BF4FF0010C254623E000263546AF
:109770003146B446D3B11F68874204D906B113609D
:10978000381A186014E0C01B3944DF68C3F800C001
:10979000D3F81C803FB10EEB010626F07F46DD6159
:1097A0005E609F601D4643462646E3E706B11360B0
:1097B0004FF0010C136803933E4B039AD3F80080DB
:1097C000404B4FF0000E93F800A049467646F14614
:1097D00015B12B46ED6923E0019B8B4276D001EB5E
:1097E0004103029C00980131C9B28C4208BF00219C
:1097F000009C14F83340012C00EBC30052D14368A5
:109800001E7C002E46D187685F60C7689F6007692D
:10981000DF6040699861BAF1000F41D05E60564642
:109820005868294FC8EB000424F07F44BC429F686D
:1098300002D83C441C6009E0C0EB080020F07F40E7
:10984000B8423ABF381A1860C3F800904FF00100D0
:10985000C3F80490C3F808901874C3F81C90DAB1E8
:109860001C681068844203D8041B1460DA6113E09A
:10987000934610460768A74205D2E41BC769834692
:109880002FB13846F6E73F1B0760074658461C6075
:10989000DF61C361134601E04FF0010E1A4697E7FE
:1098A0002646BDE713460126F8E700BF2533002012
:1098B0002433002010330020283300201C330020E4
:1098C0001433002026330020FEFF7F001EB1394BE9
:1098D0009DF804101970384BBEF1000F00D01A60CB
:1098E0001B68039A9A4202D1BCF1000F43D0002BAF
:1098F0003FD0324C324FD4F8046518683B78C8EB3F
:10990000060525F07F4503359BB94FF48033C4F835
:109910004433C4F804332B4B4FF400324FF00109A9
:10992000C3F880211A60C4F80090FFF7E1FD87F8C2
:109930000090A8422CBF8044A84428F07F43C4F87C
:109940004035D4F804251D49921B22F07F429B1B11
:10995000033223F07F439A420DD9D1F80435C1F880
:109960004035FFF7C5FD174B4FF40032C3F8002117
:1099700001E0FFF703FE144B00221A7005B0BDE8AA
:10998000F08FBD420BD1DB690BB1012107E00B4920
:1099900001268E60B34631460393B046B2462E6828
:1099A000ED69FD61002D3FF4A0AE2F683E442E60AE
:1099B0009BE600BF1C330020143300200010014040
:1099C0003033002000E100E0263300202DE9F04193
:1099D00012F0030406460F461546984628D13AB3BE
:1099E000FFF7CCFD144B154A1C705C709F705D60D6
:1099F000134BC2F800801C60124B1C70124B1C7081
:109A0000124B4FF48012E021C3F8802183F8141325
:109A10001A6002F18042A2F56F222046C2F8086562
:109A200083F811130A4BD2F804251A60BDE8F081BF
:109A30000720BDE8F08100BF1C3300201833002050
:109A400014330020253300202433002000E100E0FF
:109A500010330020074B5B684BB132B128B103686B
:109A6000187C20B959745A61704707207047082044
:109A7000704700BF1C3300202DE9F7431E4F7B6861
:109A800005460E4690469BB390B304292ED94369F0
:109A900073B3437C02A80024012B00F8014D0CBFD6
:109AA0008946A14600F058F80DF10600FFF7E0FCEA
:109AB00078B101230370114B4560D3F804358360FE
:109AC0009DF80630C660C0F81090C0F814807B7016
:109AD00000E004249DF8070000F064F824B9084B66
:109AE0004FF48012C3F80021204602E0072000E076
:109AF000082003B0BDE8F0831C33002000100140B3
:109B000000E100E0064A52683AB130B1426922B140
:109B1000002202740221FFF7C3BC0820704700BF77
:109B20001C330020082910B5044602D00020FFF79E
:109B300000FB23686068BDE81040184707B5054A78
:109B40008DE8030008216846FFF700FC03B05DF8CC
:109B500004FB00BF259B070070B5EFF3108572B6BC
:109B60000D4A9468012394B993600C4B0C49D3F8C7
:109B70008060314011600A49C3F88010D3F8841026
:109B800051604FF0FF32C3F88420047000E003708E
:109B900005B962B670BD00BF3433002000E100E0BB
:109BA000FC06FFBC10B5084B9A685AB150B9EFF3E8
:109BB000108272B605491C680C605C684C60986045
:109BC00002B962B610BD00BF3433002000E100E0EE
:109BD00030B512B11368DB4301E04FF0FF33094D9C
:109BE000014481420CD010F8012B5340082213F09D
:109BF000010418BF2C46013A84EA5303F7D1F0E779
:109C0000D84330BD2083B8EDF7B50D4617461E4644
:109C10000446A8B1A1B19BB140EA01039A0711D152
:109C2000B3070FD103F06EFC334600903A46294645
:109C3000204603F06BFC00280CBF0B20002002E044
:109C40000E2000E0102003B0F0BD29DF704728DFB0
:109C500070470000084B5A6E013A5A6622B907490C
:109C60000A7822F002020A701B6E034A0133042BA9
:109C700008BF0023136670474433002040330020A0
:109C800038B50C4C616E0429054610D0226E8B1835
:109C9000032B88BF043B18220131616602FB034499
:109CA00000212046FEF788FC2C60012038BD0020F2
:109CB00038BD00BF4433002030B5044685B00D46A2
:109CC000102200216846FEF777FC237A012B0CD086
:109CD000022B0FD10123A2898DF80030E389ADF862
:109CE0000A20D31AADF8083004E023690293A38A4E
:109CF000ADF80C3063680193236829469B68684679
:109D0000984705B030BD000038B51B4B5A6E1C4655
:109D10008AB3196E182202FB01331A7A012A05D080
:109D2000022A22D19889FFF792FF13E01825D88ADA
:109D30009A8A05FB0144121AE1682469B2F5806F22
:109D40004FEA80000144B4BF92B24FF480622044D5
:109D5000FFF77BFF112807D1084A137823F002038D
:109D600043F00403137038BD28B118460921BDE83B
:109D70003840FFF7A1BF38BD4433002040330020F6
:109D8000054A137813F0060F04D143F00203137051
:109D9000FFF7BABF704700BF40330020034A137873
:109DA00043F0010313700020704700BF40330020D0
:109DB000F7B51F461F4B1B781646DA0704460D46BB
:109DC00007D540B11C4B984205D31C4B984202D298
:109DD00003E001202BE0022029E03EB335B346EA40
:109DE00005039B071AD123689D4219D3626805EBCE
:109DF00087039A4214D3AFB101A8FFF741FF98B18E
:109E0000019B089A1C6001995A6001230B72CE6075
:109E10000D618F82FFF7B4FF002008E0062006E006
:109E2000052004E0042002E0072000E0032003B046
:109E3000F0BD00BF40330020782C0020882C00208B
:109E4000F7B51F461D4B1B78DB0705460C4616462B
:109E500007D540B11A4B984205D31A4B984202D20B
:109E600003E0012028E0022026E021B3C4F30B0325
:109E7000CBB92B689C4218D36B6804EB0632934233
:109E800013D3A6B101A8FFF7FBFE90B1019A82E8B7
:109E9000A000019B0222240B1A729C811E82FFF7F4
:109EA0006FFF002008E0062006E0052004E0042003
:109EB00002E0072000E0032003B0F0BD40330020A3
:109EC000782C0020882C002038B52A4A13780146C7
:109ED00098073FD5284B1C6E1820022900FB043040
:109EE0001A4602D0032927D03FE0244B00211970E5
:109EF000037A012B02D0022B13D036E0C58A818A67
:109F00004B1BB3F5806FB4BF9BB24FF480632B44FF
:109F100018259BB205FB04229942D38225D100214A
:109F200013E08389028A01338381C38901339BB2A1
:109F30009A42C38119D108E0104A13780133DBB289
:109F4000032B11D9002313700821FFF7B5FEFFF78B
:109F500081FE0AE0590708D50749496E03F0FB0363
:109F6000137011B143F002031370BDE83840FFF7DE
:109F7000CBBE00BF4033002044330020AC33002070
:109F8000024B586E031F584258417047443300201B
:109F9000042810B40C4611460CD16268402A0BD13B
:109FA0005A68402A08D120681B685DF8044B06C92E
:109FB000FFF72ABE062000E009205DF8044B704739
:109FC000F0B505289DB00E4617461C4614D15D68B5
:109FD000202D13D1684600F0B9F880B93A463146D1
:109FE000684600F0E3F850B901222168684600F0A5
:109FF00001F920B9656002E0062000E009201DB0EB
:10A00000F0BD00002DE9F04F0022CBB00C468D5C76
:10A01000E37843EA0563657843EA0543A57843EAB4
:10A0200005230AAD0434AB500432402AEFD12B464D
:10A0300010269D6B19685A684FEAF54484EA754406
:10A0400084EA95255C6A21446C184FEAB24181EAA2
:10A05000F21181EAD20201362244402E1A6403F141
:10A060000403E6D1036D0193436D0293836D039363
:10A07000C36D0493036E0593436E0693836E07933B
:10A08000C36E08939B46079FDDF818E0059BDDF83B
:10A090001080039D029E0199DFF8AC904FF0000CF8
:10A0A0004FEAF32282EAB31282EA736A0AAA52F8EA
:10A0B0002C40224659F82C4014440AEB040203EACF
:10A0C0000E0A27EA030484EA0A0414445C444FEAB3
:10A0D000713A85EA060B0BEA010B8AEAB10A06EA35
:10A0E00005028BEA02028AEAB15A0CF1010C924491
:10A0F000BCF1400F04EB080209925444A846BB4649
:10A1000006D0774635469E460E46099B2146C7E750
:10A11000019A22440265029A0A444265039A099907
:10A1200032448265049A2A44C265059A0A4402664A
:10A13000069A1A44079B426673448366089B3B4415
:10A14000C3664BB0BDE8F08F34DC070030B5E0B13A
:10A150000F4A02650F4A42650F4A82650F4AC2657F
:10A160000F4A02660F4A42660F4A826600240025A3
:10A1700002F17452C0E91245A2F523020023A2F6AF
:10A1800092420364C266184630BD0E2030BD00BF47
:10A1900067E6096A85AE67BB72F36E3C3AF54FA578
:10A1A0007F520E518C68059BABD9831FF8B50446CE
:10A1B000F0B10AB90020F8BDD1B10D468E180027C4
:10A1C000B542F7D0236C15F8012BE2540133402B34
:10A1D0002364F5D121462046FFF714FFD4E912018C
:10A1E00010F5007041F10001C4E912012764E7E7AE
:10A1F0000E20F8BD70B50E4615460446002800F046
:10A200008980002900F08680036C8022372BC2549D
:10A2100008D8034400F1370200219A4214D003F811
:10A22000011FFAE70133034400211A1B3F2A02D819
:10A2300003F8011BF9E721462046FFF7E3FE382229
:10A2400000212046FEF7B8F9D4E91223206C08213A
:10A25000E1FB002322FA01F1C4E9122384F83F2034
:10A2600084F83E10110C120E84F83C201A0A84F86F
:10A270003B3084F83A201A0C1B0E84F83D1084F809
:10A280003920214684F838302046FFF7BBFE31469E
:10A29000FDB10023E26EDA400A70A26EDA400A7164
:10A2A000626EDA400A72226EDA400A73E26DDA40B8
:10A2B0000A74A26DDA400A75626DDA400A76226D80
:10A2C000DA400833202B0A7701F10101E2D10020A6
:10A2D00070BD0322206DD300D8400870606DD84057
:10A2E0000871A06DD8400872E06DD8400873206EE8
:10A2F000D8400874606ED8400875A06ED8400876C3
:10A30000E06E013A20FA03F30B77531C01F10101CF
:10A31000E0D1DCE70E2070BD036859681B689942E4
:10A3200037BF8268C81A8818013038BFC01A704712
:10A3300002688168536810688B4234BF0133002380
:10A34000C31A58425841704773B5044602A8002307
:10A3500000F8013D0E46FFF7FFFB2046FFF7E8FF40
:10A3600010B1237C002B3BD12368A2685D68954225
:10A3700034BF6A1C00225A6038B12268A168136891
:10A380008B4234BF013300231360E2686368511EBF
:10A39000072917D8DFE801F00407160B1616160F69
:10A3A00032785A5513E0328823F815200FE03268CE
:10A3B00043F825200BE0D6E9000103EBC503C3E910
:10A3C000000104E0314602FB053003F03FFA20466D
:10A3D000FFF7A2FF23689A68904203D9986001E0D2
:10A3E000042400E000249DF80700FFF7DBFB204673
:10A3F00002B070BD13B502A8002300F8063DFFF7B8
:10A40000ABFB00F07FFFE0B9114B1A68CAB1114CE9
:10A41000D4F80823D20714D518601B68019302A949
:10A42000019BD4F8083501F8053D0B48FFF78CFF78
:10A430000948FFF77DFF20B1084A0123C4F808331B
:10A4400013609DF80200FFF7ADFB02B010BD00BF26
:10A4500000D1004000D0004034DD070004D00040AF
:10A460000B4B0222C3F80425D3F80024002AFBD0AA
:10A47000074AC2F80805D3F80014054A0029FAD0A3
:10A480000023C2F80435D2F80034002BFBD070470B
:10A4900000E00140104B10B50124C3F80445D3F887
:10A4A0000044002CFBD00C4C043900EB820290429B
:10A4B000094B08D051F8043F40F8043BD4F800346D
:10A4C000002BFBD0F3E70022C3F80425D3F80024C7
:10A4D000002AFBD010BD00BF00E001406CDF7047D8
:10A4E0006DDF704772DF704773DF704774DF70474E
:10A4F00076DF70477ADF70477CDF70477DDF70471B
:10A500007FDF704786DF7047A0DF7047A2DF7047AC
:10A51000A5DF7047A6DF7047A8DF7047A9DF704747
:10A52000ADDF704763DF704767DF704713DF704749
:10A5300030B587B004460D46ADF806200021102244
:10A5400002A8FEF739F801238DF80A300DF1060351
:10A55000049302A9044BADF8085020460593FFF779
:10A56000D9FF07B030BD00BF46340020FEF7E1BD83
:10A5700010B40D4B024618884FF6FF7398420FD067
:10A580000A4B1B68DB070BD5094B60245A70997086
:10A590001C70084B5DF8044B99890322FFF7C8BF74
:10A5A00008205DF8044B7047662C002058340020CA
:10A5B000463400203234002038B5334D2B6813F078
:10A5C00004045CD143F004022A60304A3048116828
:10A5D000304A00BF00BF00BF00BF00BF00BF00BFC8
:10A5E00000BF81422FD000BF00BF00BF00BF00BF2F
:10A5F00000BF00BF00BF00BF00BF00BF00BF00BF63
:10A6000000BF00BF00BF00BF00BF00BF00BF00BF52
:10A6100000BF00BF00BF00BF00BF00BF00BF00BF42
:10A6200000BF00BF00BF00BF00BF00BF00BF00BF32
:10A6300000BF00BF00BF00BF00BF00BF00BF00BF22
:10A6400000BF00BF00BF013AC3D1134A10884FF6C4
:10A65000FF72904204D01321FFF74AFF60B110E06F
:10A660009B0709D5FFF742FF58B90120FEF782FD8D
:10A670002B6843F002032B6000F022FC02E0002470
:10A6800000E00446204638BD58340020682C0020E5
:10A690000024F400C0D40100662C002030B52F4DFA
:10A6A000296811F002018BB052D1102201A8FDF7E8
:10A6B00083FF0B230122ADF8023002238DF8143002
:10A6C0008DF815208DF81830062259238DF81620A4
:10A6D0008DF819300322FE230DF102010DF11D004A
:10A6E0008DF817208DF81A30FFF708FFC8B9BDF8AC
:10A6F00002100B2908D84B1C8DF81B300923194474
:10A700008DF81C3089B206E00C238DF81B3008232D
:10A710008DF81C30142100231A46C9B205A8FFF792
:10A72000E1FE0446B8B98DF8040002908DF80C00E3
:10A730002823ADF8100001A8ADF80E30FFF7D4FEC5
:10A7400040B9FEF717FD2B6843F002032B6002E0CF
:10A75000002400E0044620460BB030BD58340020F1
:10A7600010B4154B024618884FF6FF7398421FD05D
:10A77000124B1B68DB071BD5114B60241C70032494
:10A780005C7001249C70140ADA701C71140C120E97
:10A790009A710A0AD9711A720A0C090E5A729972C0
:10A7A0005C71084B5DF8044B99890B22FFF7C0BE22
:10A7B00008205DF8044B7047662C002058340020B8
:10A7C00046340020323400202DE9F041044688B0A0
:10A7D00000F07CFB2388142B00F03F8118D8102B4D
:10A7E00026D008D8022B40F07F81A34B0021188887
:10A7F000FFF79AFE75E1112B29D0132B40F07481DD
:10A800009D4800231A4685210088FFF779FE68E1FC
:10A81000522B00F0298105D8502B00F03981512BA3
:10A820002CD061E1552B00F05881562B1CD05BE1F8
:10A830000120FEF79FFC0220FEF79CFC8E4BA288B5
:10A840001A808E4A136823F0020313604CE1032040
:10A85000FEF790FCFFF722FF08B1FEF76AFC864B7B
:10A860004FF6FF721A803FE1A379002B40F03C8144
:10A87000814B13211888FFF73BFE32E1A579002DAB
:10A8800000F03281102200210DEB0200FDF794FE52
:10A89000022D40F029817A4D2289AB899A4240F0FD
:10A8A0002381A37B043B022B40F21E819DF81630CE
:10A8B000714E298A3088CDF808D043F001038DF815
:10A8C0001630238AADF81830638AADF81A3004F1D7
:10A8D00014030222079300238DF810200193ADF892
:10A8E000042001AAFFF714FEB04660B9684600F0E4
:10A8F00043FB40B940F2FD1304A93088ADF8143091
:10A90000FFF70AFEF0E0002304A9B8F80000ADF854
:10A910001430FFF701FE002840F0E680207D04930C
:10A9200005930693019302930393431E052B00F2B4
:10A930009280DFE803F0032A3A1F904D638A062BCA
:10A9400002D00321012012E04E4B1A884E4B1A8090
:10A95000637D029301A9D4F816300393012404AA5D
:10A9600000208DF80440FDF7FFFF01462046FFF769
:10A97000FFFDB9E0032301A904AA00208DF80430EB
:10A98000FDF7F2FF01460420F1E7638A032B01D0B3
:10A99000032108E0A27D637D43EA0223394A138044
:10A9A000394A012113800220E1E704230DEB030162
:10A9B00004AA00208DF80430FDF7D6FF01280146D7
:10A9C00004D106990598FFF7CBFE8DE00320CEE772
:10A9D000638A022B02D003210620C8E7637D02931D
:10A9E00001A9062704AA00208DF80470FDF7BCFF1A
:10A9F000012801462DD1B8F800004FF6FF739842A8
:10AA000072D01E4B1B68DB076ED5204B049E059C45
:10AA10009970310A1971310C069A5971210A19720B
:10AA2000210C5972110ADE70DC71360E240EDA72B6
:10AA30001973110C120E4FF0600E59739A739E71B8
:10AA40009C720F22A98983F800E05F70FFF770FD08
:10AA50004AE038468BE7032189E700231A46194666
:10AA6000A088FFF74FFD3CE000231A461946A08856
:10AA7000FFF754FD35E000BF662C0020583400205D
:10AA80003234002056340020303400204634002078
:10AA9000174BE2889B889A4226D10020022301901E
:10AAA0008DF8043004F11203029304AA238A03935D
:10AAB00001A9049005900690FDF756FF0D4B1D88E7
:10AAC00095B10D4C2388013B9BB2238063B9069955
:10AAD0000598FFF745FE258006E01721A088FFF7BF
:10AAE0001FFD08B1FEF725FB08B0BDE8F08100BFEF
:10AAF0003234002056340020303400202DE9F04359
:10AB0000074695B0002800F098804F4B4FF6FF7233
:10AB100014A91A804FF65963012021F8483D3A469E
:10AB20008DF80A00FFF7F0FC002840F08880474BC2
:10AB300004AA03F11006154618685968144603C4A0
:10AB40000833B3422246F7D1B91C2846FFF7EAFC86
:10AB50000446002874D101461C224FF014090DA8A8
:10AB6000FDF72AFD21464A4608A8FDF725FD9DF878
:10AB70003430ADF8044043F004038DF83430BB7832
:10AB80008DF80E3002234FF00108ADF80C30230A87
:10AB900068F3030368F3420468F30713E4B28DF823
:10ABA000053044EA080401AD03AE3B1D08AA0DA917
:10ABB00038888DF8064008960995ADF82C90FFF777
:10ABC000A5FC044600283BD101461C220DA8FDF738
:10ABD000F3FC21464A4608A8FDF7EEFC9DF8343008
:10ABE000ADF8044043F018038DF83430BB788DF88D
:10ABF0000E30230A68F3030368F3071368F3420473
:10AC00008DF80530E4B2172344F01104ADF82C3070
:10AC100008AA07F10C030DA938888DF80640ADF895
:10AC20000C8008960995FFF771FC044640B9084A64
:10AC3000136843EA0803136002E00E2400E00446B0
:10AC4000204615B0BDE8F083662C002048DD0700E3
:10AC50005834002010B53B4B8AB01868019000F0C2
:10AC600052FDC0B93848FFF761FCA0B9374B3849ED
:10AC7000502201A800F04CFB08B1FEF75AFA01215E
:10AC800003AA084600F09CFB28B9172303A8ADF8D7
:10AC90001C3000F0A9FB0446002850D12D4800F0DC
:10ACA00069FB00284AD19DF800300394012262F329
:10ACB000030362F3071301A804948DF80030FFF733
:10ACC0000FFC38B99DF8053001A801338DF8053027
:10ACD000FFF704FC044690BB07221F496846FFF7B4
:10ACE0000BFC70B90C23ADF80C301823ADF80E3006
:10ACF00003A84FF4C873ADF81040ADF81230FFF759
:10AD0000F9FB0446D8B91548FFF7F8FEB0B921465B
:10AD10001C2203A8FDF750FC40F6CD4304934FF4EA
:10AD20008043059303238DF8183003A80C4B099337
:10AD300000F090F8044610B9FFF7B0FC0446204636
:10AD40000AB010BD58DD0700008007001DB40700E1
:10AD5000E0330020C9A707005CDD07003234002083
:10AD60006DA5070075DF704776DF70477ADF7047A3
:10AD70007BDF704737B5154B18884FF6FF73984245
:10AD800022D0134A134D1378297B0133DBB2994249
:10AD900013702C4606D31049FFF7E4FFA0B1AB694E
:10ADA0008BB911E0002313702B7C33B13B21FFF7EB
:10ADB000DBFF10B1AB6903B19847636923B102A807
:10ADC000002200F8042D984703B030BDA4340020C1
:10ADD0006634002068340020A634002037B5174BB5
:10ADE000174A5B881188174C174D99420DD8528825
:10ADF0009A420AD3636923B102A8012200F8042D04
:10AE0000984700232B7003B030BD2A782AB16369BC
:10AE1000002BF6D002A80022F0E70C486168007809
:10AE2000A368002818BF19460948FEF725FE002828
:10AE3000E7D0A369002BE3D1E3E700BF5E34002035
:10AE4000A6340020683400205C34002066340020E2
:10AE50008434002070B5054606460FCD114C0FC452
:10AE600095E80700104B84E8070000221A7032684A
:10AE70000E489AB11368036053684360FFF776FF8A
:10AE800078B90B4B0B484FF6FF721A800A4B0B4AEE
:10AE900000211970BDE87040FEF7DCBDFFF768FFC8
:10AEA000EEE770BD683400205C340020A63400203A
:10AEB000A434002064DD07006634002075AD07006F
:10AEC0000148FEF71FBE00BF8434002010B5038880
:10AED000112B18D002D8102B05D010BD122B35D055
:10AEE000502B1ED010BD1F4B82881A8000F110031A
:10AEF00003CB1D4A1D4B1060516000221A701C4B81
:10AF0000DB896BBB28E0174B1A484FF6FF721A809B
:10AF1000164B00221A70FEF7F5FD08B3144B9B691F
:10AF200010E0134CC288E3899A4219D1038A022B9C
:10AF300016D1123000F020F870B90E48FEF7E2FD8D
:10AF400070B1A36963B1BDE81040184700F1080370
:10AF500003CB054A10605160BDE81040FFF73EBFCB
:10AF600010BD00BFA43400205E34002066340020F1
:10AF70006834002084340020007800F0010070471D
:10AF8000094B1B78062B0CD1084B1B681A0708D1FC
:10AF9000074B186800F0F000A0F130035842584108
:10AFA00070470020704700BFE00F00F0E40F00F092
:10AFB000E80F00F00C4B1B78062B10D10B4B1B68D5
:10AFC0001A070CD10A4B186800F0F003302B08D098
:10AFD00000F0E000A0F140035842584170470020C3
:10AFE00070470120704700BFE00F00F0E40F00F051
:10AFF000E80F00F008B5FFF7C3FF10B16C4B6D4AC6
:10B000001A60FFF7D7FF28B16B4B6C4A1B68C3F37C
:10B0100042331360FFF7B4FF20B1694AD36823F0CD
:10B020008073D360FFF7C6FF40B14FF0804300222A
:10B03000C3F80C21C3F81021C3F83825FFF7A0FF8F
:10B0400010B1604B03221A60FFF79AFF40B15E4BCC
:10B0500005221A6001229A6700229A603F225A60F4
:10B060005A4B1B78062B09D1594B1B681B0705D17E
:10B07000584B1B6803F0F003502B51D0FFF79AFF99
:10B0800028B1554B554A1B6803F04F031360544ACF
:10B09000D2F8883043F47003C2F88830BFF34F8F82
:10B0A000BFF36F8F4FF01023D3F80022002A03DB89
:10B0B000D3F80432002B2FDA4A4B0122C3F80425BF
:10B0C000D3F80024002AFBD04FF010221521C2F83B
:10B0D0000012D3F80024002AFBD04FF010231522D1
:10B0E0004049C3F80422D1F800243E4B002AFAD08C
:10B0F0000022C3F80425D3F80024002AFBD0BFF3B4
:10B100004F8F3749384BCA6802F4E0621343CB6073
:10B11000BFF34F8F00BFFDE7344B354A1A6008BDBF
:10B120004FF08052334BD2F80414C3F82015D2F8F4
:10B130000814C3F82415D2F80C14C3F82815D2F853
:10B140001014C3F82C15D2F81414C3F83015D2F823
:10B150001814C3F83415D2F81C14C3F84015D2F8EB
:10B160002014C3F84415D2F82414C3F84815D2F8B3
:10B170002814C3F84C15D2F82C14C3F85015D2F883
:10B180003014C3F85415D2F83414C3F86015D2F84B
:10B190003814C3F86415D2F83C14C3F86815D2F813
:10B1A0004014C3F86C15D2F84424C3F8702565E741
:10B1B00074C007400DF0ADBA440200103C050040D9
:10B1C000F0ED00E0A005004010560040E00F00F058
:10B1D000E40F00F0E80F00F058020010E40E004009
:10B1E00000ED00E000E001400400FA05682C0020BA
:10B1F0000090D00300C0004048DF704710DF704768
:10B2000060DF704761DF7047FDF790BF0B4A92F82F
:10B210001633C3F34113012B02D842F202007047E8
:10B22000074B986828B11A6842F480021A6000201F
:10B2300070474FF480031360704700BF00E100E0E7
:10B24000343300202DE9F74F284B1B78002B4AD0D0
:10B25000274E284F35683C68DFF89C80DFF89C90CB
:10B26000DFF89CA0B5FA85F5B4FA84F46D09640999
:10B27000002D36D198F80030002B34D101A8FFF70B
:10B28000BBFF052807D010B1FDF753FF04E033687A
:10B290000198984700E0012504BB98F8003003F0BE
:10B2A000FF0B03BB02A9B9F8003021F8043DDAF81E
:10B2B00000301846FFF7A6FF0528044608D018B14D
:10B2C000FDF737FF5C4604E03A681846904700E017
:10B2D0000124002DCED0002CCAD004E0002DC9D00E
:10B2E00001E0002CD9D003B0BDE8F08FAF340020CE
:10B2F000B8340020BC340020AE340020B03400202C
:10B30000B4340020014B1878704700BFAF340020E0
:10B3100010B509B38C071FD1104C216010490A8069
:10B32000104A1360104A1368C3F340331BB14FF443
:10B330000051C2F880100D49FFF760FF28B163B1DA
:10B34000094B4FF400521A6010BD094B01221A70CC
:10B35000BDE81040FFF75ABF072010BDB4340020ED
:10B36000B0340020C034002000E100E009B2070042
:10B37000AF34002018B1034B1860002070470E2036
:10B38000704700BFBC34002018B1034B1860002088
:10B3900070470E20704700BFB834002008B5074B37
:10B3A0001B682BB1984738B1BDE80840FDF7C1BE16
:10B3B000BDE80840FFF746BF08BD00BFC03400200D
:10B3C00070B5144605460E461C2200212046FDF7A6
:10B3D000F3F801234FF00002238022752672657274
:10B3E00005B1A372002070BD07B5064B019302A9F9
:10B3F000019B41F8083DFFF703FF019B03B05DF897
:10B4000004FB00BF002C002008B511B10020FDF79F
:10B4100090FEBDE80840FFF715BF00000021024A7A
:10B420000846FDF793BF00BF09B4070008B500F058
:10B4300039F808BD13DF7047F0B50346186880F38C
:10B4400008885868FF2464B2EFF30585002D01D108
:10B45000A64600472546064621273FBAF0B40024F9
:10B46000002500260027F0B4F92040B2004700BFB5
:10B47000F0BD00BF10B5044600F045F968B9074BB0
:10B480004FF0FF32C3F880202046FFF7D3FF20B9EA
:10B490002046BDE81040FFF7CFBF10BD00E100E03F
:10B4A000FDF7B4BF13B502AC002344F8043D00F02F
:10B4B000EBF9204600F0A8FA08B101230193FDF74B
:10B4C00077FE08B101230193019C4CB1154B164A3C
:10B4D00005210020FEF77AFA38B1FDF72AFE04E0D4
:10B4E00000F03CFB0028F1D00FE0104A14210820A6
:10B4F000FDF708FF08B1FDF71CFE00F0F1F968B98F
:10B50000FDF700FAFDF782FFFCE700F027FB30B102
:10B5100043F208031868FFF7ADFF00E00446204639
:10B5200002B010BD3D9B070014360020C43400203B
:10B5300010B40A4A136823F0010419B923F0030375
:10B54000136002E044F002041460436813B15DF834
:10B55000044B18475DF8044B704700BF8C36002041
:10B5600008B568B1FEF71AFC08B1082008BD064806
:10B57000FFF70AFF0028F8D1044B04221A6008BD27
:10B58000024B186008BD00BFC99E07008C36002022
:10B590002DE9F041DFF884801C46D8F8003013F024
:10B5A000040F86B006460D46174614D09A0727D4D6
:10B5B00043F00103C8F800300A4600940146BBB2CC
:10B5C0001548FEF7F5FB20BBD8F8003043F0010327
:10B5D000C8F800301DE0A9B1A0B1054315F003057E
:10B5E00012D19AB1FEF756FF94B102A829468DF800
:10B5F000085003940496ADF81470A047284608E05C
:10B600000A2006E0032004E0062002E0042000E017
:10B61000204606B0BDE8F081782C00208C36002052
:10B620002DE9F043234E33680F46590785B0054690
:10B63000144613D59A0735D443F00103336001460D
:10B640002346BAB21C48FEF7FBFB336810B123F067
:10B65000010301E043F00103336028E0C0F30B0372
:10B6600013BBC0F30F393E4680464046FEF7F8FE56
:10B67000013E08F58058F8D105EB0735B4B110222A
:10B6800031466846FCF798FF2D0B0123684631468A
:10B690008DF800300194ADF80890ADF80A50A0473D
:10B6A000304604E00A2002E0062000E0204605B013
:10B6B000BDE8F0838C360020782C002018DF70471E
:10B6C00030B585B0054610220C4668460021FCF7CF
:10B6D00073FFA408684601950294FFF7EFFF05B0D9
:10B6E00030BD1FB59208C2F3090343B9012302908C
:10B6F0006846009301910392FFF7E0FF00E0092004
:10B7000005B05DF804FB1FB5102200216846FCF768
:10B7100053FF022368460093FFF7D0FF05B05DF8A2
:10B7200004FB1FB503230190920868460093029121
:10B730000392FFF7C3FF05B05DF804FB09B9034BA3
:10B740001970034B1B6803B11847704790360020EF
:10B7500094360020204B21491A68214B00BF00BFBE
:10B7600000BF00BF00BF00BF00BF00BF8A422FD094
:10B7700000BF00BF00BF00BF00BF00BF00BF00BFD1
:10B7800000BF00BF00BF00BF00BF00BF00BF00BFC1
:10B7900000BF00BF00BF00BF00BF00BF00BF00BFB1
:10B7A00000BF00BF00BF00BF00BF00BF00BF00BFA1
:10B7B00000BF00BF00BF00BF00BF00BF00BF00BF91
:10B7C00000BF00BF00BF00BF00BF00BF00BF00BF81
:10B7D000013BC3D1704700BF682C00200024F40057
:10B7E000A086010008B5FEF7CBFB20B1FFF7B2FF42
:10B7F000FDF70CFEF7E708BD002258210148FEF7CF
:10B80000E7B900BFF837002070B5194E0546337808
:10B81000174C23B1FFF79EFFFDF7F8FDF7E7012373
:10B820002370144B1D60FFF7DDFF00220121124839
:10B83000FFF7F6FE0728F6D018B100232370032087
:10B8400070BDFFF7D9FF0D494FF4AE7208600C4888
:10B8500001F0FCFFFFF7C6FF0A4B094906485722D3
:10B86000FFF796FE0728F5D00028E6D170BD00BF8F
:10B87000903600209436002000F00700F4370020B6
:10B88000983600203DB70700124B1349002210B52F
:10B890001A70124B4FF4AE72184601F0D7FF0268CF
:10B8A000013204460FD14FF4AE7200210B48FCF771
:10B8B00083FE012300206360FFF7A6FF48B1BDE8C7
:10B8C0001040FDF736BCFFF797FF23689842EAD196
:10B8D00010BD10BD9036002000F00700F4370020A6
:10B8E00070B5084B084CE41AE40800251E46A54232
:10B8F00005D056F83530984710B90135F7E70020E4
:10B9000070BD00BF882C0020902C002070B5084B23
:10B91000084CE41AE40800251E46A54206D006EBB2
:10B92000C5035B68984710B90135F6E7002070BD84
:10B93000882C0020902C0020044A002303604360E0
:10B94000836013635363136153617047F4370020BE
:10B950002DE9F0411B4E726B336B02F6FF74E41A53
:10B9600024F47F6424F00F04A50805F6FF7525F480
:10B970007F6503F5805725F00F0503EB00080AB13A
:10B9800093421BD02A4641463846FFF7AAFEB0B97B
:10B990002A4641463846FFF7C4FE80B9A542736B7C
:10B9A0008CBF0446641B1B1B00202F44A844336338
:10B9B000FFF72AFF002CE5D1BDE8F0810020BDE8AB
:10B9C000F08100BFF437002070B50D4B0D685C6B43
:10B9D0002D1B04440E462A4621460A48FFF7A1FEC5
:10B9E000014638B93046FFF7A7FFBDE8704008466A
:10B9F000FFF70ABF29462046BDE87040FFF760BE4A
:10BA0000F4370020008007002DE9F04743F20803D7
:10BA100080461E684F4B1A69012A99460DD05B6912
:10BA20005BB1D9F8184004F6FF7424F47F6424F065
:10BA30000F04344409F1240702E0344609F11807E1
:10BA4000BB68A52B61D002D8012B05D07DE0AA2BC5
:10BA500067D0AC2B6BD078E0D9F814203D4B012A8D
:10BA600073D11F6BD3F824A03E44C7EB0A07B7F588
:10BA7000805F4FF000024FF001013046B84628BF0A
:10BA80004FF48058FFF7CCFD054600285ED10346F1
:10BA9000424621463046FFF77BFD0546002855D13A
:10BAA000424621463046FFF73CFE054600284DD170
:10BAB000024601212046FFF7B3FD0546002845D187
:10BAC000D9F83030234D4344C9F83030FFF79CFE9D
:10BAD000B7EB080746444444C9D143F208033A4649
:10BAE00051461868FEF774F8AB6A984204BFE861E3
:10BAF0000123194804BF2B62C5F818A0FFF71CFFEB
:10BB00000020BDE8F047FFF77FBE2046FFF720FF8B
:10BB10000546B0B93846FFF70FFF2846FFF774FE19
:10BB20000EE039462046BDE8F047FFF74DBF2046FE
:10BB3000FFF70EFF054620B939462046FFF744FFC0
:10BB400005460123C8F8003000E000252846BDE87E
:10BB5000F08700BFF43700201838002010B50B4CD8
:10BB6000236A012B0DD8E3696BB143F2080300226D
:10BB7000A1691868FEF72CF8E3691B1A584258416E
:10BB800010BD002010BD012010BD00BFF437002003
:10BB900070B5194C43F2080325681B68A5F540559C
:10BBA000ED1A854201D2042070BD1360134B1E6A4A
:10BBB000012E16D19C6904F6FF7424F47F6424F0EE
:10BBC0000F042D1BA84204D90029ECD11E61596134
:10BBD0000AE0002119615E6111680C44146024338D
:10BBE00003E000221A615A611833002218605A607B
:10BBF0009A60104670BD00BF14100010F43700208A
:10BC00000023C2600160416083608B781A44026146
:10BC100091F903301A4442610878003018BF0120BE
:10BC2000704710B541680A780346002A3AD001F1FE
:10BC30000C0242600C7B2CB9C2680168FFF7E0FF80
:10BC4000204610BD48780A7900F03004302C0AD123
:10BC50004C7B04F03004302C05D188781A69121A14
:10BC60001A6100220CE000F0F004202C03D1487986
:10BC700012FB00F204E000F0C000802808BF04229C
:10BC8000487810F0300F02BF986801309860887BC8
:10BC90000244186902441A6191F90F100A445A616A
:10BCA000012010BD104610BD70B5456804460E4613
:10BCB00063681A78B24204D15B7803F00F03082B53
:10BCC00007D12046FFF7ADFF63689D42F0D1002009
:10BCD00070BD012070BD43681A44426039B101391A
:10BCE000934204D013F8010B01F8010FF8E701208B
:10BCF000704770B543685B7803F00F02082A86B07E
:10BD00001ED103691C680026002C44D023682673CA
:10BD10009D68626829466846FFF772FF636804936E
:10BD200004F10C0305936B7803F0C003802B08BF6C
:10BD3000231D684608BF0493FFF7DBFFA468E3E711
:10BD400013F0C00209D103F03001102902D1436978
:10BD50001A700CE099060AD506E0802A1BD1016909
:10BD600000229B060A6016D543691A7013E04368E7
:10BD70005A7802F00F02072A04D10169986800F08E
:10BD80000CF808E0996800691A7911B101F05EFDBC
:10BD900001E0FCF711FC06B070BD7FB50A46014614
:10BDA0006846FFF72DFF30B16846FFF7A2FF6846EF
:10BDB000FFF737FFF7E707B05DF804FB2DE9F34124
:10BDC00083680446884663B3036801220DF10701C6
:10BDD0009847074628B3A3689DF80750013B2A06F9
:10BDE000A3601BD505F07F050726A368CBB12368A8
:10BDF00001220DF107012046984790B1A3689DF8F4
:10BE00000720013BA36002F07F03B3401D431306EC
:10BE100006F1070602D5232EE7D102E0C8F800504C
:10BE200000E00027384602B0BDE8F08130B5044696
:10BE300085B0154699B90268114B9A420FD0102D62
:10BE400007D9102269462046FFF7F0FFA8B1103D40
:10BE5000F5E72A4669462046FFF7E8FF0DE0A368AC
:10BE60009D4201D9002008E023682A4620469847D1
:10BE70000028F7D0A3685D1BA56005B030BD00BFEA
:10BE8000D7BC070073B50D4601A906461446FFF757
:10BE900095FF98B1019A511C0FD26B7803F0C00343
:10BEA000802B0AD02B79994207D821463046FFF7DC
:10BEB000BDFF019B0022E25400E0002002B070BDF3
:10BEC00073B50D4601A906461446FFF777FFA0B1EA
:10BED000019AFF2A10D8511C0ED26B7803F0C003D0
:10BEE000802B09D02B79994206D82146304601F89B
:10BEF000012BFFF79BFF00E0002002B070BD0000A7
:10BF000010B58260024C046000224160C26010BD26
:10BF1000D7BC07002DE9F34704460F464FF0000851
:10BF20004FF000090025A3680BB3236801220DF12F
:10BF30000701204698470646C8B1A3689DF807A0A8
:10BF4000013B2A46A3600AF07F00002101F040FC7B
:10BF50001AF0800F48EA000849EA010905F10705CF
:10BF600002D0462DDFD102E0C7E9008900E00026BB
:10BF7000304602B0BDE8F08737B50D466946144635
:10BF8000FFF7C8FF20B32B79082B04D1DDE90001AE
:10BF9000C4E9000113E0042B03D1DDE900012060B6
:10BFA0000CE0022B03D10098208080B206E0012B28
:10BFB0000DD1DDE90001207000F0FF000021DDE976
:10BFC00000238B4206BF82420120002000E00020B7
:10BFD00003B030BD37B50D4669461446FFF79AFFEA
:10BFE00020B32A79082A04D1DDE90023C4E900231B
:10BFF0001CE0009B042A18464FEAE37103D123603A
:10C000001A460B460BE0022A03D11BB223801AB258
:10C0100004E0012A09D15BB223705AB2D3178B42D4
:10C0200006BF82420120002000E0002003B030BDA6
:10C03000F7B50C46002119702170116001A907465F
:10C0400015461E46FFF7BAFE28B9BB685BB9012347
:10C050003370002007E001990029F8D0CB0801F0E7
:10C0600007012B60217003B0F0BD13B5044605290C
:10C070001ED8DFE801F0070F111D1D1B9DF90430CC
:10C08000002B16DA012201A92046FFF7CFFE002877
:10C09000F4D10EE0082204E001A9FFF78FFE40B1C1
:10C0A000019A00212046FFF7C1FE02E00422F8E7D2
:10C0B000002002B010BD73B50D4601A90446FFF77C
:10C0C0007DFE064608B900260AE094E80F0085E8E0
:10C0D0000F0001998A42F6D3A960A3685B1AA36096
:10C0E000304602B070BD00002DE9F04357687B7800
:10C0F00013F0C00C89B006468E46144603D0BCF13E
:10C10000400F66D0B1E003F00F025A4903F030034C
:10C11000102B51F822500BD005D8002B40F0A580F1
:10C120002269394609E0202B09D0302B3DD09CE014
:10C13000636901221A7022696168A84796E0BEF11E
:10C14000020FD4F8148023D1042A21D804A9FFF7C0
:10C15000B2FF002800F08980069B93B1616898F8CF
:10C1600000304A799A420CD90879226900FB0322EF
:10C1700004A8A84730B198F80030013388F800309F
:10C18000EAE70120059B7360069B002B6ED06CE0F4
:10C1900098F800307A799A4267D922693979581C1F
:10C1A00088F8000001FB032210E0636939781970F8
:10C1B000072A0AD1636820691A796146FCF7FCF9FD
:10C1C000636821699868FFF7E8FD22696168304675
:10C1D000B3E717693B6807F1040913B9FFF745FF97
:10C1E00044E0022911D104A9FFF765FF00283CD0E3
:10C1F0003B6861684A4604A89847002835D0069BEA
:10C20000002BF5D1059B736030E001291AD008D3CB
:10C2100005292AD104220DEB0201FFF707FE0425B0
:10C2200015E000250DF1040801350B2D1DD001226C
:10C2300041463046FFF7FAFDB8B118F9013B002B33
:10C24000F2DB05E0082201A9FFF7F0FD082568B13F
:10C25000094B049301AB05930023069507933B68B4
:10C2600061684A4604A8984700E0002009B0BDE88C
:10C27000F08300BF68DD0700D7BC07002DE9F04F51
:10C2800091B00026044604A802960396FFF7B8FC76
:10C29000A368002B00F096800DF1030301AA0DF1B5
:10C2A00002012046FFF7C4FE28B99DF80330002B99
:10C2B00040F0888084E0019904A8FFF7F5FC00288D
:10C2C00057D1019B9E424ED8059D059A537803F0A5
:10C2D0000F03082B00F0A48004A8FFF7A2FC059B25
:10C2E0009D42F2D14FF0FF36019FBE423BD8089BE2
:10C2F000D4F808809DF802901D684FF0010AA368E9
:10C300007DB398452DD12B68D3F800B0BBF1000F59
:10C3100005D04B463A4629462046D8471EE0D3F87A
:10C3200008B09BF800309F4219D16A6859460AA8A4
:10C33000FFF766FC6B680E9305F10C030F939BF8F7
:10C34000013003F0C003802B04BF2B1D0E930AAAFB
:10C3500085F80CA049462046FFF7C6FE80B3AD68BD
:10C36000CDE7984594D19DF802102046FFF77DFE59
:10C3700023E0059B5B7813F0300F10D1069B3F2B19
:10C380000DD85A0910A901EB820203F01F03012105
:10C3900001FA03F352F8381C194342F8381CE568D7
:10C3A0002DB104AB9DF8022001992046A84704AAAC
:10C3B0009DF802102046FFF797FE00287FF468AF33
:10C3C00000202FE0059B069C5D7804A8FFF729FC60
:10C3D0000028F7D115F0300F03D1059B1B7803B16E
:10C3E0000134DCB1630900229A4206D002A951F857
:10C3F0002210013116D10132F6E704F01F004FF090
:10C40000FF33C0F1200023FA00F010AB03EB8202EF
:10C4100052F8383CC31A5842584103E0012001E069
:10C42000167861E711B0BDE8F08F70B50C4606468E
:10C43000154611462046FFF7B0FC2A4621463046F5
:10C44000BDE87040FFF71ABFF0B585B00C468D68A7
:10C45000694606461746FFF72EFE80B1A06870B108
:10C46000637803F03003202B3A462946684602D110
:10C47000FFF7DBFF01E0FFF701FF019B736005B0F1
:10C48000F0BDD3B50C466946FFF744FD70B1DDE958
:10C490000023002702F001065B084FEA320256EA49
:10C4A00007011CBFD243DB43C4E9002302B0D0BD67
:10C4B00037B50D4669461446FFF7E3FF18B32B79ED
:10C4C000082B04D1DDE90001C4E9000112E0042BCE
:10C4D00002D1009820600CE0022B04D1BDF90000CD
:10C4E000208000B205E0012B0CD19DF900002070E6
:10C4F00040B2C117DDE900238B4206BF8242012012
:10C50000002000E0002003B030BD13B504220C462B
:10C510000DEB0201FFF78AFC08B1019B236002B01A
:10C5200010BD1146FFF7F1BF13B508220C4669464E
:10C53000FFF77CFC18B1DDE90023C4E9002302B059
:10C5400010BD1146FFF7F0BF8B1802448B4204D098
:10C5500013F8010D02F8010DF8E7704710B5013A24
:10C5600052B2002A0ADB13B250F8234051F82330AC
:10C570009C4205D8F3D24FF0FF3010BD002010BD13
:10C58000012010BD000000000000000000000000BD
:10C59000C3F10803DB0070B50133002403A500BF1D
:10C5A0005B1920C940CAAD1920C0184720C940CA2C
:10C5B000754120C020C940CA754120C020C940CA69
:10C5C000754120C020C940CA754120C020C940CA59
:10C5D000754120C020C940CA754120C020C940CA49
:10C5E000754120C06441204670BD00BF00000000BE
:10C5F000C3F10803DB0070B50133002403A500BFBD
:10C600005B1920C940CAAD1B20C0184720C940CAC9
:10C61000B54120C020C940CAB54120C020C940CA88
:10C62000B54120C020C940CAB54120C020C940CA78
:10C63000B54120C020C940CAB54120C020C940CA68
:10C64000B54120C06441B4FA84F0400970BD00BF18
:10C650002DE9F04F08B4F8CA04B451F8042BA3FB39
:10C66000028940F8048B4FF0000AE4FB629A4FF015
:10C67000000BE5FB62AB4FF0000CE6FB62BC4FF039
:10C68000000EE7FB62CE51F8042B4FF00008E3FBED
:10C69000628940F8048BE4FB629AE5FB62ABE6FB3F
:10C6A00062BCE7FB62CE51F8042B4FF00008E3FBBD
:10C6B000628940F8048BE4FB629AE5FB62ABE6FB1F
:10C6C00062BCE7FB62CE51F8042B4FF00008E3FB9D
:10C6D000628940F8048BE4FB629AE5FB62ABE6FBFF
:10C6E00062BCE7FB62CE51F8042B4FF00008E3FB7D
:10C6F000628940F8048BE4FB629AE5FB62ABE6FBDF
:10C7000062BCE7FB62CE40F8049B40F804AB40F803
:10C7100004BB40F804CB40F804EB0CBC052B00F044
:10C720001E810C68A0F11400A1F11401A2F1140201
:10C7300052F804EB4FF0000550F8046BE4FB6E5622
:10C7400052F804EB50F8047BE4FB6E6752F804EBFC
:10C7500050F8048BE4FB6E7852F804EB50F8049B1D
:10C76000E4FB6E8952F804EB50F804ABE4FB6E9ADC
:10C77000A0F1140052F8044B51F804EB4FF0000CF8
:10C78000E4FB6EC540F804CB51F804EBE4FB6E56B5
:10C7900040F8045B51F804EBE4FB6E6740F8046B6F
:10C7A00051F804EBE4FB6E7840F8047B51F804EB9D
:10C7B000E4FB6E8940F8048B51F804EBE4FB6E9ABD
:10C7C000A0E80006062B00F0CA800C68A0F1180053
:10C7D000A1F11801A2F1180252F804EB4FF0000584
:10C7E00050F8046BE4FB6E5652F804EB50F8047BEF
:10C7F000E4FB6E6752F804EB50F8048BE4FB6E78B0
:10C8000052F804EB50F8049BE4FB6E8952F804EBF9
:10C8100050F804ABE4FB6E9A52F804EB50F804BBFA
:10C82000E4FB6EABA0F1180052F8044B51F804EB96
:10C830004FF0000CE4FB6EC540F804CB51F804EB5C
:10C84000E4FB6E5640F8045B51F804EBE4FB6E67C2
:10C8500040F8046B51F804EBE4FB6E7840F8047B7D
:10C8600051F804EBE4FB6E8940F8048B51F804EBBB
:10C87000E4FB6E9A40F8049B51F804EBE4FB6EABCA
:10C88000A0E8000C072B6AD008B40C68A0F11C00CB
:10C89000A1F11C01A2F11C0252F804EB4FF00005BB
:10C8A00050F8046BE4FB6E5652F804EB50F8047B2E
:10C8B000E4FB6E6752F804EB50F8048BE4FB6E78EF
:10C8C00052F804EB50F8049BE4FB6E8952F804EB39
:10C8D00050F804ABE4FB6E9A52F804EB50F804BB3A
:10C8E000E4FB6EAB52F804EB50F804CBE4FB6EBCF7
:10C8F000A0F11C0052F8044B51F804EB4FF0000378
:10C90000E4FB6E3540F8043B51F804EBE4FB6E5653
:10C9100040F8045B51F804EBE4FB6E6740F8046BED
:10C9200051F804EBE4FB6E7840F8047B51F804EB1B
:10C93000E4FB6E8940F8048B51F804EBE4FB6E9A3B
:10C9400040F8049B51F804EBE4FB6EAB40F804ABF9
:10C9500051F804EBE4FB6EBCA0E8001808BCBDE88D
:10C96000F08F2DE9F04FB1E8005E06B4AAFB091282
:10C970004FF00003EBFB69234FF00004ECFB69343C
:10C980004FF00005EEFB69454FF00006EBFB6A63D4
:10C99000ECFB6A344918524176415B41A9FB0978A6
:10C9A0004FF0000949F1000918EB0108A0E88001E7
:10C9B000AAFB0A78574158EB0608A0E88001EEFB75
:10C9C0006A454FF0000A4AF1000A4FF00001ECFB03
:10C9D0006B14EEFB6B454FF00002EEFB6C255FEA3B
:10C9E00059094941644152416D4149F10009EBFB4C
:10C9F0006B3A1AEB010AA0E80804ACFB0C6A66412A
:10CA00005AEB020AA0E84004AEFB0E6A6E415AEBF4
:10CA1000090AA0E8400406BC052A00F0E680A0F15F
:10CA20001400A1F11401B1E8E043A5FB0E344FF06E
:10CA30000005E6FB6E454FF00006E7FB6E564FF033
:10CA40000007E8FB6E674FF00008E9FB6E784FF0D7
:10CA50000009DB1864416D4176417F4158EB0808BD
:10CA600059F1000950F804CB13EB0C0350F804CB38
:10CA700054EB0C0450F804CB55EB0C0550F804CBE8
:10CA800056EB0C0650F804CB57EB0C0758F1000896
:10CA900059F10009A0F11400EEFB0E89A0E8F8039B
:10CAA000062A00F0A280A0F11800A1F11801B1E857
:10CAB000E047A5FB0E344FF00005E6FB6E454FF056
:10CAC0000006E7FB6E564FF00007E8FB6E674FF07D
:10CAD0000008E9FB6E784FF00009EAFB6E894FF021
:10CAE000000ADB1864416D4176417F4158EB08082C
:10CAF00059EB09095AF1000A50F804CB13EB0C0367
:10CB000050F804CB54EB0C0450F804CB55EB0C0557
:10CB100050F804CB56EB0C0650F804CB57EB0C073F
:10CB200050F804CB58EB0C0859F100095AF1000AEF
:10CB3000A0F11800EEFB0E9AA0E8F807072A54D0DF
:10CB4000A0F11C00A1F11C01B1E8E04FA5FB0E34DF
:10CB50004FF00005E6FB6E454FF00006E7FB6E5612
:10CB60004FF00007E8FB6E674FF00008E9FB6E78B6
:10CB70004FF00009EAFB6E894FF0000AEBFB6E9A5A
:10CB80004FF0000BDB1864416D4176417F4158EB5B
:10CB9000080859EB09095AEB0A0A5BF1000B50F837
:10CBA00004CB13EB0C0350F804CB54EB0C0450F8FB
:10CBB00004CB55EB0C0550F804CB56EB0C0650F8A3
:10CBC00004CB57EB0C0750F804CB58EB0C0850F88B
:10CBD00004CB59EB0C095AF1000A5BF1000BA0F1F0
:10CBE0001C00EEFB0EABA0E8F80FBDE8F08F0022B2
:10CBF00010B5144653B28B4204DA1BB2013240F82E
:10CC00002340F7E710BD2DE9F047B3F902508946FC
:10CC10000824E91D1F3591FBF4F42021944295FB73
:10CC2000F1F54FFA85F828BF14461F4641460646DF
:10CC3000FFF7DDFF22464946FFF786FCB7F90230D1
:10CC4000E4009C4220D9E41A06EB85010023C4F1DC
:10CC500020008E4208D251F8042D22FA04F52B430D
:10CC60000B6002FA00F3F4E72437424631463846B7
:10CC7000FFF774FC012807D043463A463146304658
:10CC8000BDE8F047FFF7B4BCBDE8F08710B500235E
:10CC90001A465CB28C4204DA50F824400133224335
:10CCA000F7E7B2FA82F0400910BD4A11012350F8AB
:10CCB000220001F01F0103FA01F108407047013919
:10CCC00049B2002909DA013149B2A1B101F1804329
:10CCD000013B50F82330002004E050F82130002BB5
:10CCE000EDD0F0E713B15B080130FBE7013900EB51
:10CCF000411108B270470846704730B5002463B24E
:10CD0000934206DA1BB2013451F8235040F8235005
:10CD1000F5E730BDF0B5082289B00C460646FFF7AE
:10CD2000ECFFCB6A03930B6B04934B6B05938B6BFC
:10CD30000693CB6B0793002708236A46694668462B
:10CD4000029701970097FFF723FC082305466A46E0
:10CD500031463046FFF71CFC236B0393636B04934F
:10CD6000A36B0593E36B0693054408236A46694663
:10CD700068460797FFF70CFC082305446A463146CE
:10CD80003046FFF705FC236A0093636A0193A36AA8
:10CD90000293A36B0693E36B0793054408236A464B
:10CDA00031463046059704970397FFF7F1FB636A16
:10CDB0000093A36A0193E36AA26B0293636B0393EC
:10CDC00004920693E26B236A0592054407936A4630
:10CDD000082331463046FFF7DBFBE36A0093236B01
:10CDE0000193636B0293236A0693A36A0793054436
:10CDF00008236A4631463046059704970397FFF7A4
:10CE0000F7FB236B0093636B0193A36B0293E36BBC
:10CE10000393636A0693E36A07932D1A08236A460D
:10CE20003146304605970497FFF7E2FB636B0093AA
:10CE3000A36B0193E36B0293236A0393636A0493E6
:10CE4000A36A0593236B07932D1A08236A4631467C
:10CE500030460697FFF7CCFBA36B0093E36B01937F
:10CE6000636A0393A36A0493E36A0593636B07936E
:10CE70002D1A08236A463146304602970697FFF777
:10CE8000B7FB2D1A16D508230D4A31463046FFF759
:10CE90007FFB2D18F7D410E0082231460848FFF731
:10CEA0005DFB012809D00823054A31463046FFF7CB
:10CEB0009FFB2D1A002DEFD0F5E709B0F0BD00BFA4
:10CEC00090DD070070B5013A52B20023002A09DB59
:10CED00015B2013A50F8256051F8254074402343BB
:10CEE00052B2F3E7B3FA83F0400970BD00EB810161
:10CEF0000023884206D251F8042D43EA52030B6006
:10CF0000D307F6E7704770B5036813F001050646CE
:10CF1000144605D013460A460146FFF739FB05467D
:10CF200021463046FFF7E2FF45B104F18042013A65
:10CF300056F8223043F0004346F8223070BD70B5F9
:10CF40009DF910401E4623460546FFF721FB30B9E8
:10CF5000224629463046FFF701FB012807D0234629
:10CF6000324629462846BDE87040FFF741BB70BDF8
:10CF700070B59DF910401E4623460546FFF738FB65
:10CF800038B12346324629462846BDE87040FFF7AF
:10CF9000FFBA70BD2DE9F04FA5B01C46039114AB4C
:10CFA00021468046104617460293FFF788FE494BFC
:10CFB000C0EB841005B22B40002BBEBF03F1FF3342
:10CFC00063F01F030133202695FBF6F676B20FFAC5
:10CFD00083F904A83146FFF70AFEB9F1000F30B219
:10CFE00014DD04AB002203EB8000C9F120061346D8
:10CFF000A34212D257F8231001FA09FE4EEA0202A8
:10D0000040F8232021FA06F20133F1E704AB22466F
:10D01000394603EB8000FFF770FE27B27B000193D7
:10D0200004AB03EB870704F1FF3924AB012603EBC4
:10D030008909002D42DB24AB0022C6F1010096468F
:10D0400003EB860A03EB8000019B51B299421BDA85
:10D050000FFA81FC5AF8883C53F82CB024AB03EB50
:10D06000810151F8803CC3EB0B03CEEB03039B45DE
:10D0700004D034BF4FF0010E4FF0000E50F8881C62
:10D08000013241F82C30DFE7CEEB06035E42214649
:10D0900004A85E41FFF72AFF24AB03EB840321467B
:10D0A00053F8802C59F8803C384643EAC273013D5E
:10D0B00049F8803C2DB2FFF719FFBAE724AB03EB28
:10D0C0008606224656F8881C4046FFF716FE25B015
:10D0D000BDE8F08F1F00008070B590B005469DF947
:10D0E00050401E4668462346FFF7B2FA23463246B2
:10D0F00069462846FFF74EFF10B070BD30B51C469C
:10D1000091B0054693F900306846FFF7A1FAD4F8CC
:10D11000AC3069462846984711B030BD30B514464A
:10D1200091B0054692F900206846FFF71AFCD4F842
:10D13000AC3069462846984711B030BD2DE9F04122
:10D1400015468AB0044688462022002102A8FBF733
:10D1500033FA2E1D95F9007003232A4641462046D6
:10D160000293FFF7DBFF334602AA214620460097D1
:10D17000FFF7FEFE2B46424621462046FFF7BEFF44
:10D180000097334605F1840221462046FFF7D7FE7B
:10D190000AB0BDE8F0812DE9F04793F9006092B044
:10D1A000044689461046314615469846FFF76EFDFF
:10D1B000002840F098804246494602A8FFF7AEFF9B
:10D1C000434602AA21460AA8FFF798FF02A908468B
:10D1D0004246FFF7A3FF43462A4649464846FFF723
:10D1E0008DFF08F10407424629462846FFF796FFBF
:10D1F0003B462A46214620460096FFF7A0FE3B46C6
:10D200002A46294628460096FFF799FE3B462A46BD
:10D21000214628460096FFF7ABFE43462A462146A4
:10D220002046FFF76BFF3B462246214628460096E4
:10D23000FFF785FE3B4600962A4621462046FFF72B
:10D240007EFE2368DB0714D533463A462146204646
:10D25000FFF79EF9314682462046FFF747FE06F16A
:10D260008043013B54F8230040EACA7044F823008D
:10D2700003E031462046FFF739FE42462146284664
:10D28000FFF74CFF3B460AAA294628460096FFF7BF
:10D290006FFE3B460AAA294628460096FFF768FE1D
:10D2A0000AA908463B462A460096FFF761FE434618
:10D2B0000AAA21462046FFF721FF02AA3B46104654
:10D2C00021460096FFF754FE324629462046FFF7D6
:10D2D00014FD324649462846FFF70FFD324602A9A3
:10D2E0004846FFF70AFD12B0BDE8F0872DE9F0438C
:10D2F0008BB01446129D15F9046B00961F468046AC
:10D3000089462B460246214602A8FFF731FE02A9B4
:10D31000129A0846FFF702FF129B02AA41464046B6
:10D32000FFF7ECFE129B02AA21462046FFF7E6FE1D
:10D330002B464A46394638460096FFF719FE129AA0
:10D34000394602A8FFF7EAFE02A92B4642460846E4
:10D350000096FFF70DFE02A92B46224608460096CE
:10D36000FFF706FE2B464246214620460096FFF771
:10D37000FFFD129B224649464846FFF7BFFE2B465B
:10D3800002AA414620460096FFF7F2FD129B224674
:10D3900039463846FFF7B2FE2B464A4639463846EC
:10D3A0000096FFF7E5FD324602A92046FFF7A5FCEF
:10D3B0000BB0BDE8F083F0B5154689B01C460746B2
:10D3C0000E461A4629466846FFF7A8FE23466A46D7
:10D3D00039463846FFF792FE23462A466946684694
:10D3E000FFF78CFE23466A4631463046FFF786FE3D
:10D3F00009B0F0BDF0B50F46A1B006461946384653
:10D4000015461C46FFF742FC20B121463046FFF787
:10D41000EEFB74E0224639466846FFF76EFC224672
:10D42000294608A8FFF769FC214610A8FFF7DFFB93
:10D430000123214618A81093FFF7D9FB224608A91B
:10D440006846FFF78BF8002854D0009BDA0704D415
:10D4500021466846FFF74AFD26E0089BDB0704D417
:10D46000214608A8FFF742FD3EE0002823461FDDC5
:10D4700008AA69466846FFF7BBF821466846FFF7E9
:10D4800035FD224618A910A8FFF768F8002805DA2C
:10D4900010A923462A460846FFF77AF810A9234622
:10D4A00018AA0846FFF7A4F82246294610A81EE04D
:10D4B00008A96A460846FFF79BF8214608A8FFF727
:10D4C00015FD224610A918A8FFF748F8002805DA2C
:10D4D00018A923462A460846FFF75AF818A92346F2
:10D4E00010AA0846FFF784F82246294618A8FFF735
:10D4F0000AFDA3E7224610A93046FFF7FEFB21B044
:10D50000F0BD0000004870478CDD07002DE9F04FAA
:10D51000EDB01F46DDF8D8810590B8F9026098F9A2
:10D52000005020231F3696FBF3F676B206F1FF3942
:10D5300024AB002443F829406CAB03EB89034CA8CF
:10D540008A469346394698F9012043F8804C43F8BF
:10D55000604CFEF7F9FF98F9012054A8B918FEF7BE
:10D56000F3FF29464CA8FFF791FB0746002840F03F
:10D570002781294654A8FFF789FB0390002840F033
:10D58000218108F1240332464CA918460293FEF784
:10D59000E5FF012840F01881324654A90298FEF7B1
:10D5A000DDFF0128069040F00F811CAC0CAF334624
:10D5B000029A54A92046FFF71DFF039B47F8293024
:10D5C0005A46514638464346FFF71DFB3946384612
:10D5D000029B00962246FFF77FFD0DF5B879029B6E
:10D5E000009622464CA914A8FFF776FD48462A4625
:10D5F0000599FFF782FBAB0009EB030A0793059B34
:10D60000A900591808F1440B50462A46FFF775FB4C
:10D6100059462A4634A8FFF770FBAB000BEB030119
:10D620002A463CA8FFF769FB08F10403494634AADF
:10D63000204600950493FFF79BFC53464A463CA9BD
:10D6400034A8CDF80080FFF751FE2B46049A2146FE
:10D650002046FFF7CFFE2246514648464346FFF795
:10D66000AAFE039B08933146059B0A933846CDF8E2
:10D6700024B0CDF82C90FFF722FB3146814614A848
:10D68000FFF71DFB4845B8BF48461FFA80F909F16E
:10D69000FF3B0FFA8BFB59463846FFF706FB59460E
:10D6A000071C14A818BF0127FFF7FFFA002814BFB2
:10D6B000022300231F430DF1200A2A465AF827703F
:10D6C00024A83946FFF719FB0DF1B00BAB00F91890
:10D6D0002A465846FFF711FB29462046FFF787FAEE
:10D6E000A9F10209069B23600FFA89F90DF1900A4E
:10D6F000B9F1000F45DB43462246D8F8A4705946DD
:10D700005046B84749460CA8FFF7CFFA4946071CD0
:10D7100014A818BF0127FFF7C8FA002814BF022376
:10D7200000231F4308AB53F827702FB32A4639460E
:10D7300034A8FFF7E2FA079B2A46F9183CA8FFF73E
:10D74000DCFA434622463CA934A8FFF734FE049B8A
:10D75000009534AA514644A8FFF70AFC5B4652469E
:10D760003CA934A8CDF80080FFF7C0FD434644AA89
:10D7700021462046FFF7C2FC09F1FF390FFA89F96B
:10D78000B6E72B46049A21462046FFF733FE434670
:10D79000224659465046FFF70EFE32465146029841
:10D7A000FEF7DCFE012805D03346029A514650466A
:10D7B000FEF71EFF2A464CA95046FFF783FB04E004
:10D7C000204602E0384600E003986DB0BDE8F08FD7
:10D7D0009140031C90409C46203A9340194352428A
:10D7E0006346D34019437047032A70B426D940EAF0
:10D7F00001039B0711D004780D78AC4222D102447A
:10D80000431C05E013F8014B11F8015FAC4219D13C
:10D810009342F7D1002070BC70470C4603461E6847
:10D820002568AE421846214603F1040304F10404BE
:10D83000E1D1043A032A18462146F0D8002ADAD169
:10D840001046E8E7601B70BC704700BF844641EAA1
:10D85000000313F003036DD1403A41D351F8043B68
:10D8600040F8043B51F8043B40F8043B51F8043BBA
:10D8700040F8043B51F8043B40F8043B51F8043BAA
:10D8800040F8043B51F8043B40F8043B51F8043B9A
:10D8900040F8043B51F8043B40F8043B51F8043B8A
:10D8A00040F8043B51F8043B40F8043B51F8043B7A
:10D8B00040F8043B51F8043B40F8043B51F8043B6A
:10D8C00040F8043B51F8043B40F8043B51F8043B5A
:10D8D00040F8043B51F8043B40F8043B403ABDD2C9
:10D8E000303211D351F8043B40F8043B51F8043B6B
:10D8F00040F8043B51F8043B40F8043B51F8043B2A
:10D9000040F8043B103AEDD20C3205D351F8043BF9
:10D9100040F8043B043AF9D2043208D0D2071CBFC5
:10D9200011F8013B00F8013B01D30B8803806046EE
:10D93000704700BF082A13D38B078DD010F0030364
:10D940008AD0C3F10403D21ADB071CBF11F8013BD4
:10D9500000F8013B80D331F8023B20F8023B7BE723
:10D96000043AD9D3013A11F8013B00F8013BF9D24E
:10D970000B7803704B7843708B78837060467047E8
:10D98000F8B500BFF8BC08BC9E467047F8B500BFAC
:10D99000F8BC08BC9E467047042C002043000000E1
:10D9A000011104FC0400000000000000021104FC4E
:10D9B0000400000000000000032104FC0404000037
:10D9C00000000000041101FF010000000000000041
:10D9D000051102FE0400000000000000061104FC16
:10D9E0000400000000000000071104FC0400000017
:10D9F00000000000081701FF22000000A0DA070065
:10DA0000091001FF0100000048DA070000000000D3
:10DA10000000000000000000011101FF01000000F3
:10DA200000000000021702FE64000000A0D90700F9
:10DA3000031704FC04000000C4DA07000000000023
:10DA400000000000000000000000000001070000CE
:10DA50007000000018DA0700020100000100000059
:10DA6000000000000305000041000000000000006D
:10DA7000000000000000000000000000011704FC8E
:10DA80007000000018DA0700021704FCB400000060
:10DA90004CDA070000000000000000000000000059
:10DAA000010100000100000000000000020500006C
:10DAB0002100000000000000000000000000000045
:10DAC0000000000001010000040000000000000050
:10DAD0000000000000000000000000004901B952F1
:10DAE000C5EF41DE27476A5527B31CE72D1ECB0F34
:10DAF000A00C3792BE6AB2E99B2403956593690B2B
:10DB00005EF09CFDA5C02CEEF1ECA5A1470A9B3F61
:10DB1000814C5FD407D8A31404C609D3DCDA07000C
:10DB200040000000524541445920544F2055504474
:10DB30004154450D0A00444953434F4E4E4543540A
:10DB400045440D0A00424F4F544C4F414445520D3D
:10DB50000A0052454C454153452042544E3120461F
:10DB60004F52204446550D0A003C20202020202002
:10DB70002020202020202020202020202020203E87
:10DB80000D003D000D0A4446552053544152544562
:10DB9000440D0A000400000000040100000004021B
:10DBA00020000004032100000404220000040523D7
:10DBB0000000040600001304070000000408000031
:10DBC000030409000000040A000000040B00000028
:10DBD000040C000000040D000000040E000000040E
:10DBE0000F000000041000000004110000000412E7
:10DBF00000000004130000000414000000041500DD
:10DC000000000416000000041700000004180000C3
:10DC1000000419000000041A000000041B000000AA
:10DC2000041C240000041D250000041E260000041E
:10DC30001F270000982F8A4291443771CFFBC0B54F
:10DC4000A5DBB5E95BC25639F111F159A4823F92C7
:10DC5000D55E1CAB98AA07D8015B8312BE85312420
:10DC6000C37D0C55745DBE72FEB1DE80A706DC9BE1
:10DC700074F19BC1C1699BE48647BEEFC69DC10F8D
:10DC8000CCA10C246F2CE92DAA84744ADCA9B05CC9
:10DC9000DA88F97652513E986DC631A8C82703B08C
:10DCA000C77F59BFF30BE0C64791A7D55163CA069A
:10DCB00067292914850AB72738211B2EFC6D2C4DA6
:10DCC000130D385354730A65BB0A6A762EC9C28194
:10DCD000852C7292A1E8BFA24B661AA8708B4BC22A
:10DCE000A3516CC719E892D1240699D685350EF454
:10DCF00070A06A1016C1A419086C371E4C7748270B
:10DD0000B5BCB034B30C1C394AAAD84E4FCA9C5B80
:10DD1000F36F2E68EE828F746F63A5781478C884D1
:10DD20000802C78CFAFFBE90EB6C50A4F7A3F9BEB3
:10DD3000F27871C6B0330020BC3300202000000010
:10DD4000010000000000000050EADA308883B89F2C
:10DD5000604F15F30000C98E001002004466755430
:10DD60006172670084340020D5BF070079BF0700C7
:10DD7000B1C4070023C5070043C50700C1BE0700A3
:10DD800085BE070049C4070000000000082000010C
:10DD9000FFFFFFFFFFFFFFFFFFFFFFFF000000008F
:10DDA000000000000000000001000000FFFFFFFF76
:10DDB000512563FCC2CAB9F3849E17A7ADFAE6BC2D
